{
  "contractName": "MyContract",
  "abi": [
    {
      "constant": true,
      "inputs": [],
      "name": "privateData",
      "outputs": [
        {
          "name": "",
          "type": "string"
        }
      ],
      "payable": false,
      "stateMutability": "view",
      "type": "function"
    },
    {
      "constant": false,
      "inputs": [],
      "name": "renounceOwnership",
      "outputs": [],
      "payable": false,
      "stateMutability": "nonpayable",
      "type": "function"
    },
    {
      "constant": true,
      "inputs": [],
      "name": "owner",
      "outputs": [
        {
          "name": "",
          "type": "address"
        }
      ],
      "payable": false,
      "stateMutability": "view",
      "type": "function"
    },
    {
      "constant": true,
      "inputs": [],
      "name": "isOwner",
      "outputs": [
        {
          "name": "",
          "type": "bool"
        }
      ],
      "payable": false,
      "stateMutability": "view",
      "type": "function"
    },
    {
      "constant": true,
      "inputs": [
        {
          "name": "",
          "type": "uint256"
        }
      ],
      "name": "appPublicKeys",
      "outputs": [
        {
          "name": "",
          "type": "string"
        }
      ],
      "payable": false,
      "stateMutability": "view",
      "type": "function"
    },
    {
      "constant": false,
      "inputs": [
        {
          "name": "newOwner",
          "type": "address"
        }
      ],
      "name": "transferOwnership",
      "outputs": [],
      "payable": false,
      "stateMutability": "nonpayable",
      "type": "function"
    },
    {
      "inputs": [],
      "payable": false,
      "stateMutability": "nonpayable",
      "type": "constructor"
    },
    {
      "anonymous": false,
      "inputs": [
        {
          "indexed": true,
          "name": "previousOwner",
          "type": "address"
        },
        {
          "indexed": true,
          "name": "newOwner",
          "type": "address"
        }
      ],
      "name": "OwnershipTransferred",
      "type": "event"
    },
    {
      "constant": true,
      "inputs": [
        {
          "name": "appPublicKey",
          "type": "string"
        }
      ],
      "name": "appInfo",
      "outputs": [
        {
          "name": "",
          "type": "string"
        },
        {
          "name": "",
          "type": "string[]"
        },
        {
          "name": "",
          "type": "string"
        }
      ],
      "payable": false,
      "stateMutability": "view",
      "type": "function"
    },
    {
      "constant": true,
      "inputs": [],
      "name": "getAppInfos",
      "outputs": [
        {
          "name": "",
          "type": "string[]"
        },
        {
          "name": "",
          "type": "string[]"
        },
        {
          "name": "",
          "type": "string[][]"
        },
        {
          "name": "",
          "type": "string[]"
        }
      ],
      "payable": false,
      "stateMutability": "view",
      "type": "function"
    },
    {
      "constant": true,
      "inputs": [],
      "name": "getPrivateData",
      "outputs": [
        {
          "name": "",
          "type": "string"
        }
      ],
      "payable": false,
      "stateMutability": "view",
      "type": "function"
    },
    {
      "constant": false,
      "inputs": [
        {
          "name": "appPublicKey",
          "type": "string"
        }
      ],
      "name": "eraseDataTo",
      "outputs": [],
      "payable": false,
      "stateMutability": "nonpayable",
      "type": "function"
    },
    {
      "constant": false,
      "inputs": [
        {
          "name": "appPublicKey",
          "type": "string"
        },
        {
          "name": "name",
          "type": "string"
        },
        {
          "name": "arrRequiredData",
          "type": "string[]"
        }
      ],
      "name": "setAppInfo",
      "outputs": [],
      "payable": false,
      "stateMutability": "nonpayable",
      "type": "function"
    },
    {
      "constant": false,
      "inputs": [
        {
          "name": "newPrivateData",
          "type": "string"
        }
      ],
      "name": "updatePrivateData",
      "outputs": [],
      "payable": false,
      "stateMutability": "nonpayable",
      "type": "function"
    },
    {
      "constant": false,
      "inputs": [
        {
          "name": "appPublicKey",
          "type": "string"
        },
        {
          "name": "encryptedData",
          "type": "string"
        }
      ],
      "name": "setAvailableDataTo",
      "outputs": [],
      "payable": false,
      "stateMutability": "nonpayable",
      "type": "function"
    },
    {
      "constant": true,
      "inputs": [
        {
          "name": "_a",
          "type": "string"
        },
        {
          "name": "_b",
          "type": "string"
        }
      ],
      "name": "equal",
      "outputs": [
        {
          "name": "",
          "type": "bool"
        }
      ],
      "payable": false,
      "stateMutability": "pure",
      "type": "function"
    }
  ],
  "bytecode": "0x608060405234801561001057600080fd5b50600061002a6100cd640100000000026401000000009004565b9050806000806101000a81548173ffffffffffffffffffffffffffffffffffffffff021916908373ffffffffffffffffffffffffffffffffffffffff1602179055508073ffffffffffffffffffffffffffffffffffffffff16600073ffffffffffffffffffffffffffffffffffffffff167f8be0079c531659141344cd1fd0a4f28419497f9722a3daafe3b4186f6b6457e060405160405180910390a3506100d5565b600033905090565b6125a9806100e46000396000f3fe6080604052600436106100d0576000357c0100000000000000000000000000000000000000000000000000000000900463ffffffff1680632060e508146100d55780633b11d8d7146100fe57806346bdca9a146101295780636cf1794114610166578063715018a61461018f5780638488b8cc146101a65780638da5cb5b146101cf5780638f32d59b146101fa578063921d150014610225578063a46ff69a1461024e578063b4968fcd1461027c578063d2ad4311146102b9578063e7e1ef57146102f8578063f2fde38b14610323575b600080fd5b3480156100e157600080fd5b506100fc60048036036100f79190810190611d4f565b61034c565b005b34801561010a57600080fd5b506101136103af565b6040516101209190612260565b60405180910390f35b34801561013557600080fd5b50610150600480360361014b9190810190611d90565b61044d565b60405161015d9190612245565b60405180910390f35b34801561017257600080fd5b5061018d60048036036101889190810190611d4f565b610463565b005b34801561019b57600080fd5b506101a46105c3565b005b3480156101b257600080fd5b506101cd60048036036101c89190810190611dfc565b6106cb565b005b3480156101db57600080fd5b506101e4610906565b6040516101f191906121c9565b60405180910390f35b34801561020657600080fd5b5061020f61092f565b60405161021c9190612245565b60405180910390f35b34801561023157600080fd5b5061024c60048036036102479190810190611d90565b61098d565b005b34801561025a57600080fd5b50610263610ad0565b60405161027394939291906121e4565b60405180910390f35b34801561028857600080fd5b506102a3600480360361029e9190810190611e93565b610d17565b6040516102b09190612260565b60405180910390f35b3480156102c557600080fd5b506102e060048036036102db9190810190611d4f565b610dd2565b6040516102ef939291906122a4565b60405180910390f35b34801561030457600080fd5b5061030d611118565b60405161031a9190612282565b60405180910390f35b34801561032f57600080fd5b5061034a60048036036103459190810190611d26565b611203565b005b61035461092f565b1515610395576040517f08c379a000000000000000000000000000000000000000000000000000000000815260040161038c90612330565b60405180910390fd5b80600390805190602001906103ab9291906118ed565b5050565b60038054600181600116156101000203166002900480601f0160208091040260200160405190810160405280929190818152602001828054600181600116156101000203166002900480156104455780601f1061041a57610100808354040283529160200191610445565b820191906000526020600020905b81548152906001019060200180831161042857829003601f168201915b505050505081565b60008061045a8484611258565b14905092915050565b61046b61092f565b15156104ac576040517f08c379a00000000000000000000000000000000000000000000000000000000081526004016104a390612330565b60405180910390fd5b7fffffffffffffffffffffffffffffffffffffffffffffffffffffffffffffffff6104d68261151e565b14151515610519576040517f08c379a000000000000000000000000000000000000000000000000000000000815260040161051090612370565b60405180910390fd5b6001816040518082805190602001908083835b602083101515610551578051825260208201915060208101905060208303925061052c565b6001836020036101000a038019825116818451168082178552505050505050905001915050908152602001604051809103902060008082016000610595919061196d565b6001820160006105a591906119b5565b6002820160006105b5919061196d565b50506105c081611633565b50565b6105cb61092f565b151561060c576040517f08c379a000000000000000000000000000000000000000000000000000000000815260040161060390612330565b60405180910390fd5b600073ffffffffffffffffffffffffffffffffffffffff166000809054906101000a900473ffffffffffffffffffffffffffffffffffffffff1673ffffffffffffffffffffffffffffffffffffffff167f8be0079c531659141344cd1fd0a4f28419497f9722a3daafe3b4186f6b6457e060405160405180910390a360008060006101000a81548173ffffffffffffffffffffffffffffffffffffffff021916908373ffffffffffffffffffffffffffffffffffffffff160217905550565b6106d361092f565b1515610714576040517f08c379a000000000000000000000000000000000000000000000000000000000815260040161070b90612330565b60405180910390fd5b6000835111151561075a576040517f08c379a000000000000000000000000000000000000000000000000000000000815260040161075190612310565b60405180910390fd5b600081511115156107a0576040517f08c379a000000000000000000000000000000000000000000000000000000000815260040161079790612350565b60405180910390fd5b60606040519081016040528083815260200182815260200160206040519081016040528060008152508152506001846040518082805190602001908083835b60208310151561080457805182526020820191506020810190506020830392506107df565b6001836020036101000a038019825116818451168082178552505050505050905001915050908152602001604051809103902060008201518160000190805190602001906108539291906119d6565b506020820151816001019080519060200190610870929190611a56565b50604082015181600201908051906020019061088d9291906119d6565b509050507fffffffffffffffffffffffffffffffffffffffffffffffffffffffffffffffff6108bb8461151e565b14156109015760028390806001815401808255809150509060018203906000526020600020016000909192909190915090805190602001906108fe9291906118ed565b50505b505050565b60008060009054906101000a900473ffffffffffffffffffffffffffffffffffffffff16905090565b60008060009054906101000a900473ffffffffffffffffffffffffffffffffffffffff1673ffffffffffffffffffffffffffffffffffffffff166109716117b5565b73ffffffffffffffffffffffffffffffffffffffff1614905090565b61099561092f565b15156109d6576040517f08c379a00000000000000000000000000000000000000000000000000000000081526004016109cd90612330565b60405180910390fd5b7fffffffffffffffffffffffffffffffffffffffffffffffffffffffffffffffff610a008361151e565b14151515610a43576040517f08c379a0000000000000000000000000000000000000000000000000000000008152600401610a3a90612370565b60405180910390fd5b60006001836040518082805190602001908083835b602083101515610a7d5780518252602082019150602081019050602083039250610a58565b6001836020036101000a0380198251168184511680821785525050505050509050019150509081526020016040518091039020905081816002019080519060200190610aca9291906118ed565b50505050565b60608060608060606002805480602002602001604051908101604052809291908181526020016000905b82821015610bb6578382906000526020600020018054600181600116156101000203166002900480601f016020809104026020016040519081016040528092919081815260200182805460018160011615610100020316600290048015610ba25780601f10610b7757610100808354040283529160200191610ba2565b820191906000526020600020905b815481529060010190602001808311610b8557829003601f168201915b505050505081526020019060010190610afa565b50505050905060608151604051908082528060200260200182016040528015610bf357816020015b6060815260200190600190039081610bde5790505b50905060608251604051908082528060200260200182016040528015610c2d57816020015b6060815260200190600190039081610c185790505b50905060608351604051908082528060200260200182016040528015610c6757816020015b6060815260200190600190039081610c525790505b50905060008090505b8451811015610d0057610c998582815181101515610c8a57fe5b90602001906020020151610dd2565b8292508191508090508684815181101515610cb057fe5b9060200190602002018685815181101515610cc757fe5b9060200190602002018686815181101515610cde57fe5b9060200190602002018390528390528390525050508080600101915050610c70565b508383838397509750975097505050505090919293565b600281815481101515610d2657fe5b906000526020600020016000915090508054600181600116156101000203166002900480601f016020809104026020016040519081016040528092919081815260200182805460018160011615610100020316600290048015610dca5780601f10610d9f57610100808354040283529160200191610dca565b820191906000526020600020905b815481529060010190602001808311610dad57829003601f168201915b505050505081565b60608060607fffffffffffffffffffffffffffffffffffffffffffffffffffffffffffffffff610e018561151e565b14151515610e44576040517f08c379a0000000000000000000000000000000000000000000000000000000008152600401610e3b90612370565b60405180910390fd5b610e4c611ab6565b6001856040518082805190602001908083835b602083101515610e845780518252602082019150602081019050602083039250610e5f565b6001836020036101000a038019825116818451168082178552505050505050905001915050908152602001604051809103902060606040519081016040529081600082018054600181600116156101000203166002900480601f016020809104026020016040519081016040528092919081815260200182805460018160011615610100020316600290048015610f5c5780601f10610f3157610100808354040283529160200191610f5c565b820191906000526020600020905b815481529060010190602001808311610f3f57829003601f168201915b5050505050815260200160018201805480602002602001604051908101604052809291908181526020016000905b82821015611046578382906000526020600020018054600181600116156101000203166002900480601f0160208091040260200160405190810160405280929190818152602001828054600181600116156101000203166002900480156110325780601f1061100757610100808354040283529160200191611032565b820191906000526020600020905b81548152906001019060200180831161101557829003601f168201915b505050505081526020019060010190610f8a565b505050508152602001600282018054600181600116156101000203166002900480601f0160208091040260200160405190810160405280929190818152602001828054600181600116156101000203166002900480156110e75780601f106110bc576101008083540402835291602001916110e7565b820191906000526020600020905b8154815290600101906020018083116110ca57829003601f168201915b5050505050815250509050806000015181602001518260400151829250819150809050935093509350509193909250565b606061112261092f565b1515611163576040517f08c379a000000000000000000000000000000000000000000000000000000000815260040161115a90612330565b60405180910390fd5b60038054600181600116156101000203166002900480601f0160208091040260200160405190810160405280929190818152602001828054600181600116156101000203166002900480156111f95780601f106111ce576101008083540402835291602001916111f9565b820191906000526020600020905b8154815290600101906020018083116111dc57829003601f168201915b5050505050905090565b61120b61092f565b151561124c576040517f08c379a000000000000000000000000000000000000000000000000000000000815260040161124390612330565b60405180910390fd5b611255816117bd565b50565b600060608390506060839050600082519050808251101561127857815190505b60008090505b818110156114c457828181518110151561129457fe5b9060200101517f010000000000000000000000000000000000000000000000000000000000000090047f0100000000000000000000000000000000000000000000000000000000000000027effffffffffffffffffffffffffffffffffffffffffffffffffffffffffffff1916848281518110151561130f57fe5b9060200101517f010000000000000000000000000000000000000000000000000000000000000090047f0100000000000000000000000000000000000000000000000000000000000000027effffffffffffffffffffffffffffffffffffffffffffffffffffffffffffff191610156113ae577fffffffffffffffffffffffffffffffffffffffffffffffffffffffffffffffff945050505050611518565b82818151811015156113bc57fe5b9060200101517f010000000000000000000000000000000000000000000000000000000000000090047f0100000000000000000000000000000000000000000000000000000000000000027effffffffffffffffffffffffffffffffffffffffffffffffffffffffffffff1916848281518110151561143757fe5b9060200101517f010000000000000000000000000000000000000000000000000000000000000090047f0100000000000000000000000000000000000000000000000000000000000000027effffffffffffffffffffffffffffffffffffffffffffffffffffffffffffff191611156114b7576001945050505050611518565b808060010191505061127e565b508151835110156114fa577fffffffffffffffffffffffffffffffffffffffffffffffffffffffffffffffff9350505050611518565b8151835111156115105760019350505050611518565b600093505050505b92915050565b600080600090505b600280549050811015611609576115ee60028281548110151561154557fe5b906000526020600020018054600181600116156101000203166002900480601f0160208091040260200160405190810160405280929190818152602001828054600181600116156101000203166002900480156115e35780601f106115b8576101008083540402835291602001916115e3565b820191906000526020600020905b8154815290600101906020018083116115c657829003601f168201915b50505050508461044d565b156115fc578091505061162e565b8080600101915050611526565b507fffffffffffffffffffffffffffffffffffffffffffffffffffffffffffffffff90505b919050565b60008090505b6002805490508110156117b15761170160028281548110151561165857fe5b906000526020600020018054600181600116156101000203166002900480601f0160208091040260200160405190810160405280929190818152602001828054600181600116156101000203166002900480156116f65780601f106116cb576101008083540402835291602001916116f6565b820191906000526020600020905b8154815290600101906020018083116116d957829003601f168201915b50505050508361044d565b156117a457600260016002805490500381548110151561171d57fe5b9060005260206000200160028281548110151561173657fe5b90600052602060002001908054600181600116156101000203166002900461175f929190611ad8565b50600260016002805490500381548110151561177757fe5b90600052602060002001600061178d919061196d565b60028054809190600190036117a29190611b5f565b505b8080600101915050611639565b5050565b600033905090565b600073ffffffffffffffffffffffffffffffffffffffff168173ffffffffffffffffffffffffffffffffffffffff161415151561182f576040517f08c379a0000000000000000000000000000000000000000000000000000000008152600401611826906122f0565b60405180910390fd5b8073ffffffffffffffffffffffffffffffffffffffff166000809054906101000a900473ffffffffffffffffffffffffffffffffffffffff1673ffffffffffffffffffffffffffffffffffffffff167f8be0079c531659141344cd1fd0a4f28419497f9722a3daafe3b4186f6b6457e060405160405180910390a3806000806101000a81548173ffffffffffffffffffffffffffffffffffffffff021916908373ffffffffffffffffffffffffffffffffffffffff16021790555050565b828054600181600116156101000203166002900490600052602060002090601f016020900481019282601f1061192e57805160ff191683800117855561195c565b8280016001018555821561195c579182015b8281111561195b578251825591602001919060010190611940565b5b5090506119699190611b8b565b5090565b50805460018160011615610100020316600290046000825580601f1061199357506119b2565b601f0160209004906000526020600020908101906119b19190611b8b565b5b50565b50805460008255906000526020600020908101906119d39190611bb0565b50565b828054600181600116156101000203166002900490600052602060002090601f016020900481019282601f10611a1757805160ff1916838001178555611a45565b82800160010185558215611a45579182015b82811115611a44578251825591602001919060010190611a29565b5b509050611a529190611b8b565b5090565b828054828255906000526020600020908101928215611aa5579160200282015b82811115611aa4578251829080519060200190611a949291906119d6565b5091602001919060010190611a76565b5b509050611ab29190611bb0565b5090565b6060604051908101604052806060815260200160608152602001606081525090565b828054600181600116156101000203166002900490600052602060002090601f016020900481019282601f10611b115780548555611b4e565b82800160010185558215611b4e57600052602060002091601f016020900482015b82811115611b4d578254825591600101919060010190611b32565b5b509050611b5b9190611b8b565b5090565b815481835581811115611b8657818360005260206000209182019101611b859190611bb0565b5b505050565b611bad91905b80821115611ba9576000816000905550600101611b91565b5090565b90565b611bd991905b80821115611bd55760008181611bcc919061196d565b50600101611bb6565b5090565b90565b6000611be88235612500565b905092915050565b600082601f8301121515611c0357600080fd5b8135611c16611c11826123bd565b612390565b9150818183526020840193506020810190508360005b83811015611c5c5781358601611c428882611c66565b845260208401935060208301925050600181019050611c2c565b5050505092915050565b600082601f8301121515611c7957600080fd5b8135611c8c611c87826123e5565b612390565b91508082526020830160208301858383011115611ca857600080fd5b611cb383828461251c565b50505092915050565b600082601f8301121515611ccf57600080fd5b8135611ce2611cdd82612411565b612390565b91508082526020830160208301858383011115611cfe57600080fd5b611d0983828461251c565b50505092915050565b6000611d1e8235612512565b905092915050565b600060208284031215611d3857600080fd5b6000611d4684828501611bdc565b91505092915050565b600060208284031215611d6157600080fd5b600082013567ffffffffffffffff811115611d7b57600080fd5b611d8784828501611cbc565b91505092915050565b60008060408385031215611da357600080fd5b600083013567ffffffffffffffff811115611dbd57600080fd5b611dc985828601611cbc565b925050602083013567ffffffffffffffff811115611de657600080fd5b611df285828601611cbc565b9150509250929050565b600080600060608486031215611e1157600080fd5b600084013567ffffffffffffffff811115611e2b57600080fd5b611e3786828701611cbc565b935050602084013567ffffffffffffffff811115611e5457600080fd5b611e6086828701611cbc565b925050604084013567ffffffffffffffff811115611e7d57600080fd5b611e8986828701611bf0565b9150509250925092565b600060208284031215611ea557600080fd5b6000611eb384828501611d12565b91505092915050565b611ec5816124c2565b82525050565b6000611ed682612464565b80845260208401935083602082028501611eef8561243d565b60005b84811015611f28578383038852611f0a838351611fa7565b9250611f158261249b565b9150602088019750600181019050611ef2565b508196508694505050505092915050565b6000611f448261247a565b80845260208401935083602082028501611f5d85612457565b60005b84811015611f96578383038852611f7883835161205a565b9250611f83826124b5565b9150602088019750600181019050611f60565b508196508694505050505092915050565b6000611fb28261246f565b80845260208401935083602082028501611fcb8561244a565b60005b84811015612004578383038852611fe683835161205a565b9250611ff1826124a8565b9150602088019750600181019050611fce565b508196508694505050505092915050565b61201e816124d4565b82525050565b600061202f82612490565b80845261204381602086016020860161252b565b61204c8161255e565b602085010191505092915050565b600061206582612485565b80845261207981602086016020860161252b565b6120828161255e565b602085010191505092915050565b6000602682527f4f776e61626c653a206e6577206f776e657220697320746865207a65726f206160208301527f64647265737300000000000000000000000000000000000000000000000000006040830152606082019050919050565b6000601382527f5075626c6963206b657920697320656d707479000000000000000000000000006020830152604082019050919050565b6000602082527f4f776e61626c653a2063616c6c6572206973206e6f7420746865206f776e65726020830152604082019050919050565b6000601682527f5265717569726564206461746120697320656d707479000000000000000000006020830152604082019050919050565b6000601d82527f417070207075626c6963206b657920646f6573206e6f742065786973740000006020830152604082019050919050565b60006020820190506121de6000830184611ebc565b92915050565b600060808201905081810360008301526121fe8187611f39565b905081810360208301526122128186611f39565b905081810360408301526122268185611ecb565b9050818103606083015261223a8184611f39565b905095945050505050565b600060208201905061225a6000830184612015565b92915050565b6000602082019050818103600083015261227a818461205a565b905092915050565b6000602082019050818103600083015261229c8184612024565b905092915050565b600060608201905081810360008301526122be8186612024565b905081810360208301526122d28185611f39565b905081810360408301526122e68184612024565b9050949350505050565b6000602082019050818103600083015261230981612090565b9050919050565b60006020820190508181036000830152612329816120ed565b9050919050565b6000602082019050818103600083015261234981612124565b9050919050565b600060208201905081810360008301526123698161215b565b9050919050565b6000602082019050818103600083015261238981612192565b9050919050565b6000604051905081810181811067ffffffffffffffff821117156123b357600080fd5b8060405250919050565b600067ffffffffffffffff8211156123d457600080fd5b602082029050602081019050919050565b600067ffffffffffffffff8211156123fc57600080fd5b601f19601f8301169050602081019050919050565b600067ffffffffffffffff82111561242857600080fd5b601f19601f8301169050602081019050919050565b6000602082019050919050565b6000602082019050919050565b6000602082019050919050565b600081519050919050565b600081519050919050565b600081519050919050565b600081519050919050565b600081519050919050565b6000602082019050919050565b6000602082019050919050565b6000602082019050919050565b60006124cd826124e0565b9050919050565b60008115159050919050565b600073ffffffffffffffffffffffffffffffffffffffff82169050919050565b600061250b826124e0565b9050919050565b6000819050919050565b82818337600083830152505050565b60005b8381101561254957808201518184015260208101905061252e565b83811115612558576000848401525b50505050565b6000601f19601f830116905091905056fea265627a7a72305820231bbe468b6cff612846645b32bf145f9f8174efc85f6575d6355e0384a00c4b6c6578706572696d656e74616cf50037",
  "source": "pragma solidity ^0.5.0;\npragma experimental ABIEncoderV2;\nimport \"./Ownable.sol\";\n\ncontract MyContract is Ownable {\n    \n    struct AppInfo{\n        string name;\n        string[] requiredData;\n        string availableData;\n    }\n\n    mapping (string => AppInfo) private appInfos;\n    string[] public appPublicKeys;\n    \n    string public privateData;\n    \n    constructor() \n    Ownable() \n    public {\n        \n    }\n\n    function appInfo(string memory appPublicKey) public view\n        returns(\n            string memory,\n            string[] memory,\n            string memory\n        ) {\n            require(findAppPublicKey(appPublicKey) != -1, \"App public key does not exist\");\n\n            AppInfo memory ai = appInfos[appPublicKey];\n            \n            return (\n                ai.name,\n                ai.requiredData,\n                ai.availableData\n            );\n    }\n\n    function getAppInfos() public view returns(string[] memory, string[] memory, string[][] memory, string[] memory) {\n        string[] memory pks = appPublicKeys;\n\n        string[] memory names = new string[](pks.length);\n        string[][] memory requiredDatas = new string[][](pks.length);\n        string[] memory availableDatas = new string[](pks.length);\n\n        for (uint i = 0; i < pks.length; i++) {\n            (names[i], requiredDatas[i], availableDatas[i]) = appInfo(pks[i]);\n        }\n\n        return (pks, names, requiredDatas, availableDatas);\n    }\n\n    function getPrivateData() public view onlyOwner returns (string memory) {\n        return privateData;\n    }\n\n    function eraseDataTo(string memory appPublicKey) public onlyOwner {\n        require(findAppPublicKey(appPublicKey) != -1, \"App public key does not exist\");\n        delete appInfos[appPublicKey];\n        removeAppPublicKey(appPublicKey);\n    }\n    \n    function setAppInfo(string memory appPublicKey, string memory name, string[] memory arrRequiredData) public onlyOwner {\n        require(bytes(appPublicKey).length > 0, \"Public key is empty\");\n        require(arrRequiredData.length > 0, \"Required data is empty\");\n        appInfos[appPublicKey] = AppInfo(name, arrRequiredData, \"\");\n        if(findAppPublicKey(appPublicKey) == -1){\n            appPublicKeys.push(appPublicKey);\n        }\n    }\n    \n    function updatePrivateData(string memory newPrivateData) public onlyOwner {\n        privateData = newPrivateData;\n    }\n    \n    function setAvailableDataTo(string memory appPublicKey, string memory encryptedData) public onlyOwner {\n        require(findAppPublicKey(appPublicKey) != -1, \"App public key does not exist\");\n        AppInfo storage ai = appInfos[appPublicKey];\n        ai.availableData = encryptedData;\n    }\n    \n    function findAppPublicKey(string memory appPublicKey) private view returns (int256){\n        for (uint i=0; i<appPublicKeys.length; i++){\n            if(equal(appPublicKeys[i], appPublicKey)){\n                return int(i);\n            }\n        }\n        return -1;\n    }\n    \n    function removeAppPublicKey(string memory appPublicKey) private {\n        for (uint i=0; i< appPublicKeys.length; i++){\n            if(equal(appPublicKeys[i], appPublicKey)){\n                appPublicKeys[i] = appPublicKeys[appPublicKeys.length-1];\n                delete appPublicKeys[appPublicKeys.length-1];\n                appPublicKeys.length--;\n            }\n        }\n    }\n    \n    // StringUtils\n    function compare(string memory _a, string memory _b) private pure returns (int) {\n        bytes memory a = bytes(_a);\n        bytes memory b = bytes(_b);\n        uint minLength = a.length;\n        if (b.length < minLength) minLength = b.length;\n        //@todo unroll the loop into increments of 32 and do full 32 byte comparisons\n        for (uint i = 0; i < minLength; i ++)\n            if (a[i] < b[i])\n                return -1;\n            else if (a[i] > b[i])\n                return 1;\n        if (a.length < b.length)\n            return -1;\n        else if (a.length > b.length)\n            return 1;\n        else\n            return 0;\n    }\n    /// @dev Compares two strings and returns true iff they are equal.\n    function equal(string memory _a, string memory _b) public pure returns (bool) {\n        return compare(_a, _b) == 0;\n    }\n    /// @dev Finds the index of the first occurrence of _needle in _haystack\n    function indexOf(string memory _haystack, string memory _needle) private pure returns (int)\n    {\n    \tbytes memory h = bytes(_haystack);\n    \tbytes memory n = bytes(_needle);\n    \tif(h.length < 1 || n.length < 1 || (n.length > h.length)) \n    \t\treturn -1;\n    \telse if(h.length > (2**128 -1)) // since we have to be able to return -1 (if the char isn't found or input error), this function must return an \"int\" type with a max length of (2^128 - 1)\n    \t\treturn -1;\t\t\t\t\t\t\t\t\t\n    \telse\n    \t{\n    \t\tuint subindex = 0;\n    \t\tfor (uint i = 0; i < h.length; i ++)\n    \t\t{\n    \t\t\tif (h[i] == n[0]) // found the first char of b\n    \t\t\t{\n    \t\t\t\tsubindex = 1;\n    \t\t\t\twhile(subindex < n.length && (i + subindex) < h.length && h[i + subindex] == n[subindex]) // search until the chars don't match or until we reach the end of a or b\n    \t\t\t\t{\n    \t\t\t\t\tsubindex++;\n    \t\t\t\t}\t\n    \t\t\t\tif(subindex == n.length)\n    \t\t\t\t\treturn int(i);\n    \t\t\t}\n    \t\t}\n    \t\treturn -1;\n    \t}\t\n    }\n}",
  "sourcePath": "/home/iuri/VSCodeProjects/iesb-blockchain/dapp/contracts/MyContract.sol",
  "compiler": {
    "name": "solc",
    "version": "0.5.0+commit.1d4f565a.Emscripten.clang"
  },
  "schemaVersion": "3.1.0",
  "updatedAt": "2020-05-28T18:51:50.407Z",
  "networkType": "ethereum",
  "devdoc": {
    "methods": {
      "equal(string,string)": {
        "details": "Compares two strings and returns true iff they are equal."
      },
      "isOwner()": {
        "details": "Returns true if the caller is the current owner."
      },
      "owner()": {
        "details": "Returns the address of the current owner."
      },
      "renounceOwnership()": {
        "details": "Leaves the contract without owner. It will not be possible to call `onlyOwner` functions anymore. Can only be called by the current owner.     * NOTE: Renouncing ownership will leave the contract without an owner, thereby removing any functionality that is only available to the owner."
      },
      "transferOwnership(address)": {
        "details": "Transfers ownership of the contract to a new account (`newOwner`). Can only be called by the current owner."
      }
    }
  },
  "userdoc": {
    "methods": {}
  }
}