{
  "contractName": "MyContract",
  "abi": [
    {
      "constant": true,
      "inputs": [],
      "name": "privateData",
      "outputs": [
        {
          "name": "",
          "type": "string"
        }
      ],
      "payable": false,
      "stateMutability": "view",
      "type": "function"
    },
    {
      "constant": false,
      "inputs": [],
      "name": "renounceOwnership",
      "outputs": [],
      "payable": false,
      "stateMutability": "nonpayable",
      "type": "function"
    },
    {
      "constant": true,
      "inputs": [],
      "name": "owner",
      "outputs": [
        {
          "name": "",
          "type": "address"
        }
      ],
      "payable": false,
      "stateMutability": "view",
      "type": "function"
    },
    {
      "constant": true,
      "inputs": [],
      "name": "isOwner",
      "outputs": [
        {
          "name": "",
          "type": "bool"
        }
      ],
      "payable": false,
      "stateMutability": "view",
      "type": "function"
    },
    {
      "constant": true,
      "inputs": [
        {
          "name": "",
          "type": "uint256"
        }
      ],
      "name": "appPublicKeys",
      "outputs": [
        {
          "name": "",
          "type": "string"
        }
      ],
      "payable": false,
      "stateMutability": "view",
      "type": "function"
    },
    {
      "constant": false,
      "inputs": [
        {
          "name": "newOwner",
          "type": "address"
        }
      ],
      "name": "transferOwnership",
      "outputs": [],
      "payable": false,
      "stateMutability": "nonpayable",
      "type": "function"
    },
    {
      "inputs": [],
      "payable": false,
      "stateMutability": "nonpayable",
      "type": "constructor"
    },
    {
      "anonymous": false,
      "inputs": [
        {
          "indexed": true,
          "name": "previousOwner",
          "type": "address"
        },
        {
          "indexed": true,
          "name": "newOwner",
          "type": "address"
        }
      ],
      "name": "OwnershipTransferred",
      "type": "event"
    },
    {
      "constant": true,
      "inputs": [
        {
          "name": "appPublicKey",
          "type": "string"
        }
      ],
      "name": "appInfo",
      "outputs": [
        {
          "name": "",
          "type": "string"
        },
        {
          "name": "",
          "type": "string[]"
        },
        {
          "name": "",
          "type": "string"
        }
      ],
      "payable": false,
      "stateMutability": "view",
      "type": "function"
    },
    {
      "constant": true,
      "inputs": [],
      "name": "getAppInfos",
      "outputs": [
        {
          "name": "",
          "type": "string[]"
        },
        {
          "name": "",
          "type": "string[]"
        },
        {
          "name": "",
          "type": "string[][]"
        },
        {
          "name": "",
          "type": "string[]"
        }
      ],
      "payable": false,
      "stateMutability": "view",
      "type": "function"
    },
    {
      "constant": true,
      "inputs": [],
      "name": "getPrivateData",
      "outputs": [
        {
          "name": "",
          "type": "string"
        }
      ],
      "payable": false,
      "stateMutability": "view",
      "type": "function"
    },
    {
      "constant": false,
      "inputs": [
        {
          "name": "appPublicKey",
          "type": "string"
        }
      ],
      "name": "eraseDataTo",
      "outputs": [],
      "payable": false,
      "stateMutability": "nonpayable",
      "type": "function"
    },
    {
      "constant": false,
      "inputs": [],
      "name": "eraseDataToAll",
      "outputs": [],
      "payable": false,
      "stateMutability": "nonpayable",
      "type": "function"
    },
    {
      "constant": false,
      "inputs": [
        {
          "name": "appPublicKey",
          "type": "string"
        },
        {
          "name": "name",
          "type": "string"
        },
        {
          "name": "arrRequiredData",
          "type": "string[]"
        }
      ],
      "name": "setAppInfo",
      "outputs": [],
      "payable": false,
      "stateMutability": "nonpayable",
      "type": "function"
    },
    {
      "constant": false,
      "inputs": [
        {
          "name": "newPrivateData",
          "type": "string"
        }
      ],
      "name": "updatePrivateData",
      "outputs": [],
      "payable": false,
      "stateMutability": "nonpayable",
      "type": "function"
    },
    {
      "constant": false,
      "inputs": [
        {
          "name": "appPublicKey",
          "type": "string"
        },
        {
          "name": "encryptedData",
          "type": "string"
        }
      ],
      "name": "setAvailableDataTo",
      "outputs": [],
      "payable": false,
      "stateMutability": "nonpayable",
      "type": "function"
    },
    {
      "constant": false,
      "inputs": [
        {
          "name": "_appPublicKeys",
          "type": "string[]"
        },
        {
          "name": "encryptedDatas",
          "type": "string[]"
        }
      ],
      "name": "setAvailableDateToAll",
      "outputs": [],
      "payable": false,
      "stateMutability": "nonpayable",
      "type": "function"
    },
    {
      "constant": true,
      "inputs": [
        {
          "name": "_a",
          "type": "string"
        },
        {
          "name": "_b",
          "type": "string"
        }
      ],
      "name": "equal",
      "outputs": [
        {
          "name": "",
          "type": "bool"
        }
      ],
      "payable": false,
      "stateMutability": "pure",
      "type": "function"
    }
  ],
  "bytecode": "0x608060405234801561001057600080fd5b50600061002a6100cd640100000000026401000000009004565b9050806000806101000a81548173ffffffffffffffffffffffffffffffffffffffff021916908373ffffffffffffffffffffffffffffffffffffffff1602179055508073ffffffffffffffffffffffffffffffffffffffff16600073ffffffffffffffffffffffffffffffffffffffff167f8be0079c531659141344cd1fd0a4f28419497f9722a3daafe3b4186f6b6457e060405160405180910390a3506100d5565b600033905090565b6129b9806100e46000396000f3fe6080604052600436106100e6576000357c0100000000000000000000000000000000000000000000000000000000900463ffffffff1680632060e508146100eb5780633b11d8d71461011457806346bdca9a1461013f5780636cf179411461017c578063715018a6146101a55780638488b8cc146101bc57806384b5c866146101e55780638da5cb5b1461020e5780638f32d59b14610239578063921d150014610264578063a46ff69a1461028d578063b4968fcd146102bb578063c0221fc3146102f8578063d2ad43111461030f578063e7e1ef571461034e578063f2fde38b14610379575b600080fd5b3480156100f757600080fd5b50610112600480360361010d91908101906120e2565b6103a2565b005b34801561012057600080fd5b50610129610405565b6040516101369190612650565b60405180910390f35b34801561014b57600080fd5b5061016660048036036101619190810190612123565b6104a3565b6040516101739190612635565b60405180910390f35b34801561018857600080fd5b506101a3600480360361019e91908101906120e2565b6104b9565b005b3480156101b157600080fd5b506101ba610619565b005b3480156101c857600080fd5b506101e360048036036101de919081019061218f565b610721565b005b3480156101f157600080fd5b5061020c60048036036102079190810190612076565b61095c565b005b34801561021a57600080fd5b50610223610ac3565b60405161023091906125b9565b60405180910390f35b34801561024557600080fd5b5061024e610aec565b60405161025b9190612635565b60405180910390f35b34801561027057600080fd5b5061028b60048036036102869190810190612123565b610b4a565b005b34801561029957600080fd5b506102a2610c8d565b6040516102b294939291906125d4565b60405180910390f35b3480156102c757600080fd5b506102e260048036036102dd9190810190612226565b610ed4565b6040516102ef9190612650565b60405180910390f35b34801561030457600080fd5b5061030d610f8f565b005b34801561031b57600080fd5b50610336600480360361033191908101906120e2565b611166565b60405161034593929190612694565b60405180910390f35b34801561035a57600080fd5b5061036361143f565b6040516103709190612672565b60405180910390f35b34801561038557600080fd5b506103a0600480360361039b919081019061204d565b61152a565b005b6103aa610aec565b15156103eb576040517f08c379a00000000000000000000000000000000000000000000000000000000081526004016103e290612720565b60405180910390fd5b8060039080519060200190610401929190611c14565b5050565b60038054600181600116156101000203166002900480601f01602080910402602001604051908101604052809291908181526020018280546001816001161561010002031660029004801561049b5780601f106104705761010080835404028352916020019161049b565b820191906000526020600020905b81548152906001019060200180831161047e57829003601f168201915b505050505081565b6000806104b0848461157f565b14905092915050565b6104c1610aec565b1515610502576040517f08c379a00000000000000000000000000000000000000000000000000000000081526004016104f990612720565b60405180910390fd5b7fffffffffffffffffffffffffffffffffffffffffffffffffffffffffffffffff61052c82611845565b1415151561056f576040517f08c379a000000000000000000000000000000000000000000000000000000000815260040161056690612760565b60405180910390fd5b6001816040518082805190602001908083835b6020831015156105a75780518252602082019150602081019050602083039250610582565b6001836020036101000a0380198251168184511680821785525050505050509050019150509081526020016040518091039020600080820160006105eb9190611c94565b6001820160006105fb9190611cdc565b60028201600061060b9190611c94565b50506106168161195a565b50565b610621610aec565b1515610662576040517f08c379a000000000000000000000000000000000000000000000000000000000815260040161065990612720565b60405180910390fd5b600073ffffffffffffffffffffffffffffffffffffffff166000809054906101000a900473ffffffffffffffffffffffffffffffffffffffff1673ffffffffffffffffffffffffffffffffffffffff167f8be0079c531659141344cd1fd0a4f28419497f9722a3daafe3b4186f6b6457e060405160405180910390a360008060006101000a81548173ffffffffffffffffffffffffffffffffffffffff021916908373ffffffffffffffffffffffffffffffffffffffff160217905550565b610729610aec565b151561076a576040517f08c379a000000000000000000000000000000000000000000000000000000000815260040161076190612720565b60405180910390fd5b600083511115156107b0576040517f08c379a00000000000000000000000000000000000000000000000000000000081526004016107a790612700565b60405180910390fd5b600081511115156107f6576040517f08c379a00000000000000000000000000000000000000000000000000000000081526004016107ed90612740565b60405180910390fd5b60606040519081016040528083815260200182815260200160206040519081016040528060008152508152506001846040518082805190602001908083835b60208310151561085a5780518252602082019150602081019050602083039250610835565b6001836020036101000a038019825116818451168082178552505050505050905001915050908152602001604051809103902060008201518160000190805190602001906108a9929190611cfd565b5060208201518160010190805190602001906108c6929190611d7d565b5060408201518160020190805190602001906108e3929190611cfd565b509050507fffffffffffffffffffffffffffffffffffffffffffffffffffffffffffffffff61091184611845565b1415610957576002839080600181540180825580915050906001820390600052602060002001600090919290919091509080519060200190610954929190611c14565b50505b505050565b610964610aec565b15156109a5576040517f08c379a000000000000000000000000000000000000000000000000000000000815260040161099c90612720565b60405180910390fd5b805182511415156109eb576040517f08c379a00000000000000000000000000000000000000000000000000000000081526004016109e290612780565b60405180910390fd5b60008090505b8251811015610abe57600060018483815181101515610a0c57fe5b906020019060200201516040518082805190602001908083835b602083101515610a4b5780518252602082019150602081019050602083039250610a26565b6001836020036101000a038019825116818451168082178552505050505050905001915050908152602001604051809103902090508282815181101515610a8e57fe5b90602001906020020151816002019080519060200190610aaf929190611c14565b505080806001019150506109f1565b505050565b60008060009054906101000a900473ffffffffffffffffffffffffffffffffffffffff16905090565b60008060009054906101000a900473ffffffffffffffffffffffffffffffffffffffff1673ffffffffffffffffffffffffffffffffffffffff16610b2e611adc565b73ffffffffffffffffffffffffffffffffffffffff1614905090565b610b52610aec565b1515610b93576040517f08c379a0000000000000000000000000000000000000000000000000000000008152600401610b8a90612720565b60405180910390fd5b7fffffffffffffffffffffffffffffffffffffffffffffffffffffffffffffffff610bbd83611845565b14151515610c00576040517f08c379a0000000000000000000000000000000000000000000000000000000008152600401610bf790612760565b60405180910390fd5b60006001836040518082805190602001908083835b602083101515610c3a5780518252602082019150602081019050602083039250610c15565b6001836020036101000a0380198251168184511680821785525050505050509050019150509081526020016040518091039020905081816002019080519060200190610c87929190611c14565b50505050565b60608060608060606002805480602002602001604051908101604052809291908181526020016000905b82821015610d73578382906000526020600020018054600181600116156101000203166002900480601f016020809104026020016040519081016040528092919081815260200182805460018160011615610100020316600290048015610d5f5780601f10610d3457610100808354040283529160200191610d5f565b820191906000526020600020905b815481529060010190602001808311610d4257829003601f168201915b505050505081526020019060010190610cb7565b50505050905060608151604051908082528060200260200182016040528015610db057816020015b6060815260200190600190039081610d9b5790505b50905060608251604051908082528060200260200182016040528015610dea57816020015b6060815260200190600190039081610dd55790505b50905060608351604051908082528060200260200182016040528015610e2457816020015b6060815260200190600190039081610e0f5790505b50905060008090505b8451811015610ebd57610e568582815181101515610e4757fe5b90602001906020020151611166565b8292508191508090508684815181101515610e6d57fe5b9060200190602002018685815181101515610e8457fe5b9060200190602002018686815181101515610e9b57fe5b9060200190602002018390528390528390525050508080600101915050610e2d565b508383838397509750975097505050505090919293565b600281815481101515610ee357fe5b906000526020600020016000915090508054600181600116156101000203166002900480601f016020809104026020016040519081016040528092919081815260200182805460018160011615610100020316600290048015610f875780601f10610f5c57610100808354040283529160200191610f87565b820191906000526020600020905b815481529060010190602001808311610f6a57829003601f168201915b505050505081565b610f97610aec565b1515610fd8576040517f08c379a0000000000000000000000000000000000000000000000000000000008152600401610fcf90612720565b60405180910390fd5b5b6000600280549050111561116457600160026000815481101515610ff957fe5b90600052602060002001604051808280546001816001161561010002031660029004801561105e5780601f1061103c57610100808354040283529182019161105e565b820191906000526020600020905b81548152906001019060200180831161104a575b50509150509081526020016040518091039020600080820160006110829190611c94565b6001820160006110929190611cdc565b6002820160006110a29190611c94565b505061115f600260008154811015156110b757fe5b906000526020600020018054600181600116156101000203166002900480601f0160208091040260200160405190810160405280929190818152602001828054600181600116156101000203166002900480156111555780601f1061112a57610100808354040283529160200191611155565b820191906000526020600020905b81548152906001019060200180831161113857829003601f168201915b505050505061195a565b610fd9565b565b6060806060611173611ddd565b6001856040518082805190602001908083835b6020831015156111ab5780518252602082019150602081019050602083039250611186565b6001836020036101000a038019825116818451168082178552505050505050905001915050908152602001604051809103902060606040519081016040529081600082018054600181600116156101000203166002900480601f0160208091040260200160405190810160405280929190818152602001828054600181600116156101000203166002900480156112835780601f1061125857610100808354040283529160200191611283565b820191906000526020600020905b81548152906001019060200180831161126657829003601f168201915b5050505050815260200160018201805480602002602001604051908101604052809291908181526020016000905b8282101561136d578382906000526020600020018054600181600116156101000203166002900480601f0160208091040260200160405190810160405280929190818152602001828054600181600116156101000203166002900480156113595780601f1061132e57610100808354040283529160200191611359565b820191906000526020600020905b81548152906001019060200180831161133c57829003601f168201915b5050505050815260200190600101906112b1565b505050508152602001600282018054600181600116156101000203166002900480601f01602080910402602001604051908101604052809291908181526020018280546001816001161561010002031660029004801561140e5780601f106113e35761010080835404028352916020019161140e565b820191906000526020600020905b8154815290600101906020018083116113f157829003601f168201915b5050505050815250509050806000015181602001518260400151829250819150809050935093509350509193909250565b6060611449610aec565b151561148a576040517f08c379a000000000000000000000000000000000000000000000000000000000815260040161148190612720565b60405180910390fd5b60038054600181600116156101000203166002900480601f0160208091040260200160405190810160405280929190818152602001828054600181600116156101000203166002900480156115205780601f106114f557610100808354040283529160200191611520565b820191906000526020600020905b81548152906001019060200180831161150357829003601f168201915b5050505050905090565b611532610aec565b1515611573576040517f08c379a000000000000000000000000000000000000000000000000000000000815260040161156a90612720565b60405180910390fd5b61157c81611ae4565b50565b600060608390506060839050600082519050808251101561159f57815190505b60008090505b818110156117eb5782818151811015156115bb57fe5b9060200101517f010000000000000000000000000000000000000000000000000000000000000090047f0100000000000000000000000000000000000000000000000000000000000000027effffffffffffffffffffffffffffffffffffffffffffffffffffffffffffff1916848281518110151561163657fe5b9060200101517f010000000000000000000000000000000000000000000000000000000000000090047f0100000000000000000000000000000000000000000000000000000000000000027effffffffffffffffffffffffffffffffffffffffffffffffffffffffffffff191610156116d5577fffffffffffffffffffffffffffffffffffffffffffffffffffffffffffffffff94505050505061183f565b82818151811015156116e357fe5b9060200101517f010000000000000000000000000000000000000000000000000000000000000090047f0100000000000000000000000000000000000000000000000000000000000000027effffffffffffffffffffffffffffffffffffffffffffffffffffffffffffff1916848281518110151561175e57fe5b9060200101517f010000000000000000000000000000000000000000000000000000000000000090047f0100000000000000000000000000000000000000000000000000000000000000027effffffffffffffffffffffffffffffffffffffffffffffffffffffffffffff191611156117de57600194505050505061183f565b80806001019150506115a5565b50815183511015611821577fffffffffffffffffffffffffffffffffffffffffffffffffffffffffffffffff935050505061183f565b815183511115611837576001935050505061183f565b600093505050505b92915050565b600080600090505b6002805490508110156119305761191560028281548110151561186c57fe5b906000526020600020018054600181600116156101000203166002900480601f01602080910402602001604051908101604052809291908181526020018280546001816001161561010002031660029004801561190a5780601f106118df5761010080835404028352916020019161190a565b820191906000526020600020905b8154815290600101906020018083116118ed57829003601f168201915b5050505050846104a3565b156119235780915050611955565b808060010191505061184d565b507fffffffffffffffffffffffffffffffffffffffffffffffffffffffffffffffff90505b919050565b60008090505b600280549050811015611ad857611a2860028281548110151561197f57fe5b906000526020600020018054600181600116156101000203166002900480601f016020809104026020016040519081016040528092919081815260200182805460018160011615610100020316600290048015611a1d5780601f106119f257610100808354040283529160200191611a1d565b820191906000526020600020905b815481529060010190602001808311611a0057829003601f168201915b5050505050836104a3565b15611acb576002600160028054905003815481101515611a4457fe5b90600052602060002001600282815481101515611a5d57fe5b906000526020600020019080546001816001161561010002031660029004611a86929190611dff565b506002600160028054905003815481101515611a9e57fe5b906000526020600020016000611ab49190611c94565b6002805480919060019003611ac99190611e86565b505b8080600101915050611960565b5050565b600033905090565b600073ffffffffffffffffffffffffffffffffffffffff168173ffffffffffffffffffffffffffffffffffffffff1614151515611b56576040517f08c379a0000000000000000000000000000000000000000000000000000000008152600401611b4d906126e0565b60405180910390fd5b8073ffffffffffffffffffffffffffffffffffffffff166000809054906101000a900473ffffffffffffffffffffffffffffffffffffffff1673ffffffffffffffffffffffffffffffffffffffff167f8be0079c531659141344cd1fd0a4f28419497f9722a3daafe3b4186f6b6457e060405160405180910390a3806000806101000a81548173ffffffffffffffffffffffffffffffffffffffff021916908373ffffffffffffffffffffffffffffffffffffffff16021790555050565b828054600181600116156101000203166002900490600052602060002090601f016020900481019282601f10611c5557805160ff1916838001178555611c83565b82800160010185558215611c83579182015b82811115611c82578251825591602001919060010190611c67565b5b509050611c909190611eb2565b5090565b50805460018160011615610100020316600290046000825580601f10611cba5750611cd9565b601f016020900490600052602060002090810190611cd89190611eb2565b5b50565b5080546000825590600052602060002090810190611cfa9190611ed7565b50565b828054600181600116156101000203166002900490600052602060002090601f016020900481019282601f10611d3e57805160ff1916838001178555611d6c565b82800160010185558215611d6c579182015b82811115611d6b578251825591602001919060010190611d50565b5b509050611d799190611eb2565b5090565b828054828255906000526020600020908101928215611dcc579160200282015b82811115611dcb578251829080519060200190611dbb929190611cfd565b5091602001919060010190611d9d565b5b509050611dd99190611ed7565b5090565b6060604051908101604052806060815260200160608152602001606081525090565b828054600181600116156101000203166002900490600052602060002090601f016020900481019282601f10611e385780548555611e75565b82800160010185558215611e7557600052602060002091601f016020900482015b82811115611e74578254825591600101919060010190611e59565b5b509050611e829190611eb2565b5090565b815481835581811115611ead57818360005260206000209182019101611eac9190611ed7565b5b505050565b611ed491905b80821115611ed0576000816000905550600101611eb8565b5090565b90565b611f0091905b80821115611efc5760008181611ef39190611c94565b50600101611edd565b5090565b90565b6000611f0f8235612910565b905092915050565b600082601f8301121515611f2a57600080fd5b8135611f3d611f38826127cd565b6127a0565b9150818183526020840193506020810190508360005b83811015611f835781358601611f698882611f8d565b845260208401935060208301925050600181019050611f53565b5050505092915050565b600082601f8301121515611fa057600080fd5b8135611fb3611fae826127f5565b6127a0565b91508082526020830160208301858383011115611fcf57600080fd5b611fda83828461292c565b50505092915050565b600082601f8301121515611ff657600080fd5b813561200961200482612821565b6127a0565b9150808252602083016020830185838301111561202557600080fd5b61203083828461292c565b50505092915050565b60006120458235612922565b905092915050565b60006020828403121561205f57600080fd5b600061206d84828501611f03565b91505092915050565b6000806040838503121561208957600080fd5b600083013567ffffffffffffffff8111156120a357600080fd5b6120af85828601611f17565b925050602083013567ffffffffffffffff8111156120cc57600080fd5b6120d885828601611f17565b9150509250929050565b6000602082840312156120f457600080fd5b600082013567ffffffffffffffff81111561210e57600080fd5b61211a84828501611fe3565b91505092915050565b6000806040838503121561213657600080fd5b600083013567ffffffffffffffff81111561215057600080fd5b61215c85828601611fe3565b925050602083013567ffffffffffffffff81111561217957600080fd5b61218585828601611fe3565b9150509250929050565b6000806000606084860312156121a457600080fd5b600084013567ffffffffffffffff8111156121be57600080fd5b6121ca86828701611fe3565b935050602084013567ffffffffffffffff8111156121e757600080fd5b6121f386828701611fe3565b925050604084013567ffffffffffffffff81111561221057600080fd5b61221c86828701611f17565b9150509250925092565b60006020828403121561223857600080fd5b600061224684828501612039565b91505092915050565b612258816128d2565b82525050565b600061226982612874565b808452602084019350836020820285016122828561284d565b60005b848110156122bb57838303885261229d83835161233a565b92506122a8826128ab565b9150602088019750600181019050612285565b508196508694505050505092915050565b60006122d78261288a565b808452602084019350836020820285016122f085612867565b60005b8481101561232957838303885261230b8383516123ed565b9250612316826128c5565b91506020880197506001810190506122f3565b508196508694505050505092915050565b60006123458261287f565b8084526020840193508360208202850161235e8561285a565b60005b848110156123975783830388526123798383516123ed565b9250612384826128b8565b9150602088019750600181019050612361565b508196508694505050505092915050565b6123b1816128e4565b82525050565b60006123c2826128a0565b8084526123d681602086016020860161293b565b6123df8161296e565b602085010191505092915050565b60006123f882612895565b80845261240c81602086016020860161293b565b6124158161296e565b602085010191505092915050565b6000602682527f4f776e61626c653a206e6577206f776e657220697320746865207a65726f206160208301527f64647265737300000000000000000000000000000000000000000000000000006040830152606082019050919050565b6000601382527f5075626c6963206b657920697320656d707479000000000000000000000000006020830152604082019050919050565b6000602082527f4f776e61626c653a2063616c6c6572206973206e6f7420746865206f776e65726020830152604082019050919050565b6000601682527f5265717569726564206461746120697320656d707479000000000000000000006020830152604082019050919050565b6000601d82527f417070207075626c6963206b657920646f6573206e6f742065786973740000006020830152604082019050919050565b6000602782527f456e6372797074656420646174617320617272617920776974682077726f6e6760208301527f206c656e677468000000000000000000000000000000000000000000000000006040830152606082019050919050565b60006020820190506125ce600083018461224f565b92915050565b600060808201905081810360008301526125ee81876122cc565b9050818103602083015261260281866122cc565b90508181036040830152612616818561225e565b9050818103606083015261262a81846122cc565b905095945050505050565b600060208201905061264a60008301846123a8565b92915050565b6000602082019050818103600083015261266a81846123ed565b905092915050565b6000602082019050818103600083015261268c81846123b7565b905092915050565b600060608201905081810360008301526126ae81866123b7565b905081810360208301526126c281856122cc565b905081810360408301526126d681846123b7565b9050949350505050565b600060208201905081810360008301526126f981612423565b9050919050565b6000602082019050818103600083015261271981612480565b9050919050565b60006020820190508181036000830152612739816124b7565b9050919050565b60006020820190508181036000830152612759816124ee565b9050919050565b6000602082019050818103600083015261277981612525565b9050919050565b600060208201905081810360008301526127998161255c565b9050919050565b6000604051905081810181811067ffffffffffffffff821117156127c357600080fd5b8060405250919050565b600067ffffffffffffffff8211156127e457600080fd5b602082029050602081019050919050565b600067ffffffffffffffff82111561280c57600080fd5b601f19601f8301169050602081019050919050565b600067ffffffffffffffff82111561283857600080fd5b601f19601f8301169050602081019050919050565b6000602082019050919050565b6000602082019050919050565b6000602082019050919050565b600081519050919050565b600081519050919050565b600081519050919050565b600081519050919050565b600081519050919050565b6000602082019050919050565b6000602082019050919050565b6000602082019050919050565b60006128dd826128f0565b9050919050565b60008115159050919050565b600073ffffffffffffffffffffffffffffffffffffffff82169050919050565b600061291b826128f0565b9050919050565b6000819050919050565b82818337600083830152505050565b60005b8381101561295957808201518184015260208101905061293e565b83811115612968576000848401525b50505050565b6000601f19601f830116905091905056fea265627a7a72305820381a6a94499f839b7b8521cb7540f063437e3479a2dcb9f3dca2e1fb3f8151496c6578706572696d656e74616cf50037",
  "source": "pragma solidity ^0.5.0;\npragma experimental ABIEncoderV2;\nimport \"./Ownable.sol\";\n\ncontract MyContract is Ownable {\n    \n    struct AppInfo{\n        string name;\n        string[] requiredData;\n        string availableData;\n    }\n\n    mapping (string => AppInfo) private appInfos;\n    string[] public appPublicKeys;\n    \n    string public privateData;\n    \n    constructor() \n    Ownable() \n    public {\n        \n    }\n\n    function appInfo(string memory appPublicKey) public view\n        returns(\n            string memory,\n            string[] memory,\n            string memory\n        ) {\n            AppInfo memory ai = appInfos[appPublicKey];\n            \n            return (\n                ai.name,\n                ai.requiredData,\n                ai.availableData\n            );\n    }\n\n    function getAppInfos() public view returns(string[] memory, string[] memory, string[][] memory, string[] memory) {\n        string[] memory pks = appPublicKeys;\n\n        string[] memory names = new string[](pks.length);\n        string[][] memory requiredDatas = new string[][](pks.length);\n        string[] memory availableDatas = new string[](pks.length);\n\n        for (uint i = 0; i < pks.length; i++) {\n            (names[i], requiredDatas[i], availableDatas[i]) = appInfo(pks[i]);\n        }\n\n        return (pks, names, requiredDatas, availableDatas);\n    }\n\n    function getPrivateData() public view onlyOwner returns (string memory) {\n        return privateData;\n    }\n\n    function eraseDataTo(string memory appPublicKey) public onlyOwner {\n        require(findAppPublicKey(appPublicKey) != -1, \"App public key does not exist\");\n        delete appInfos[appPublicKey];\n        removeAppPublicKey(appPublicKey);\n    }\n    \n    function eraseDataToAll() public onlyOwner {\n        while(appPublicKeys.length > 0){\n            delete appInfos[appPublicKeys[0]];\n            removeAppPublicKey(appPublicKeys[0]);\n        }\n    }\n    \n    function setAppInfo(string memory appPublicKey, string memory name, string[] memory arrRequiredData) public onlyOwner {\n        require(bytes(appPublicKey).length > 0, \"Public key is empty\");\n        require(arrRequiredData.length > 0, \"Required data is empty\");\n        appInfos[appPublicKey] = AppInfo(name, arrRequiredData, \"\");\n        if(findAppPublicKey(appPublicKey) == -1){\n            appPublicKeys.push(appPublicKey);\n        }\n    }\n    \n    function updatePrivateData(string memory newPrivateData) public onlyOwner {\n        privateData = newPrivateData;\n    }\n    \n    function setAvailableDataTo(string memory appPublicKey, string memory encryptedData) public onlyOwner {\n        require(findAppPublicKey(appPublicKey) != -1, \"App public key does not exist\");\n        AppInfo storage ai = appInfos[appPublicKey];\n        ai.availableData = encryptedData;\n    }\n\n    function setAvailableDateToAll(string[] memory _appPublicKeys, string[] memory encryptedDatas) public onlyOwner {\n        require(_appPublicKeys.length == encryptedDatas.length, \"Encrypted datas array with wrong length\");\n        for (uint i = 0; i < _appPublicKeys.length; i++){\n            AppInfo storage ai = appInfos[_appPublicKeys[i]];\n            ai.availableData = encryptedDatas[i];\n        }\n    }\n    \n    function findAppPublicKey(string memory appPublicKey) private view returns (int256){\n        for (uint i = 0; i < appPublicKeys.length; i++){\n            if(equal(appPublicKeys[i], appPublicKey)){\n                return int(i);\n            }\n        }\n        return -1;\n    }\n    \n    function removeAppPublicKey(string memory appPublicKey) private {\n        for (uint i=0; i< appPublicKeys.length; i++){\n            if(equal(appPublicKeys[i], appPublicKey)){\n                appPublicKeys[i] = appPublicKeys[appPublicKeys.length-1];\n                delete appPublicKeys[appPublicKeys.length-1];\n                appPublicKeys.length--;\n            }\n        }\n    }\n    \n    // StringUtils\n    function compare(string memory _a, string memory _b) private pure returns (int) {\n        bytes memory a = bytes(_a);\n        bytes memory b = bytes(_b);\n        uint minLength = a.length;\n        if (b.length < minLength) minLength = b.length;\n        //@todo unroll the loop into increments of 32 and do full 32 byte comparisons\n        for (uint i = 0; i < minLength; i ++)\n            if (a[i] < b[i])\n                return -1;\n            else if (a[i] > b[i])\n                return 1;\n        if (a.length < b.length)\n            return -1;\n        else if (a.length > b.length)\n            return 1;\n        else\n            return 0;\n    }\n    /// @dev Compares two strings and returns true iff they are equal.\n    function equal(string memory _a, string memory _b) public pure returns (bool) {\n        return compare(_a, _b) == 0;\n    }\n    /// @dev Finds the index of the first occurrence of _needle in _haystack\n    function indexOf(string memory _haystack, string memory _needle) private pure returns (int)\n    {\n    \tbytes memory h = bytes(_haystack);\n    \tbytes memory n = bytes(_needle);\n    \tif(h.length < 1 || n.length < 1 || (n.length > h.length)) \n    \t\treturn -1;\n    \telse if(h.length > (2**128 -1)) // since we have to be able to return -1 (if the char isn't found or input error), this function must return an \"int\" type with a max length of (2^128 - 1)\n    \t\treturn -1;\t\t\t\t\t\t\t\t\t\n    \telse\n    \t{\n    \t\tuint subindex = 0;\n    \t\tfor (uint i = 0; i < h.length; i ++)\n    \t\t{\n    \t\t\tif (h[i] == n[0]) // found the first char of b\n    \t\t\t{\n    \t\t\t\tsubindex = 1;\n    \t\t\t\twhile(subindex < n.length && (i + subindex) < h.length && h[i + subindex] == n[subindex]) // search until the chars don't match or until we reach the end of a or b\n    \t\t\t\t{\n    \t\t\t\t\tsubindex++;\n    \t\t\t\t}\t\n    \t\t\t\tif(subindex == n.length)\n    \t\t\t\t\treturn int(i);\n    \t\t\t}\n    \t\t}\n    \t\treturn -1;\n    \t}\t\n    }\n}",
  "sourcePath": "/home/iuri/VSCodeProjects/iesb-blockchain/dapp/contracts/MyContract.sol",
  "compiler": {
    "name": "solc",
    "version": "0.5.0+commit.1d4f565a.Emscripten.clang"
  },
  "schemaVersion": "3.1.0",
  "updatedAt": "2020-06-09T22:23:55.231Z",
  "networkType": "ethereum",
  "devdoc": {
    "methods": {
      "equal(string,string)": {
        "details": "Compares two strings and returns true iff they are equal."
      },
      "isOwner()": {
        "details": "Returns true if the caller is the current owner."
      },
      "owner()": {
        "details": "Returns the address of the current owner."
      },
      "renounceOwnership()": {
        "details": "Leaves the contract without owner. It will not be possible to call `onlyOwner` functions anymore. Can only be called by the current owner.     * NOTE: Renouncing ownership will leave the contract without an owner, thereby removing any functionality that is only available to the owner."
      },
      "transferOwnership(address)": {
        "details": "Transfers ownership of the contract to a new account (`newOwner`). Can only be called by the current owner."
      }
    }
  },
  "userdoc": {
    "methods": {}
  }
}