{
  "contractName": "MyContract",
  "abi": [
    {
      "constant": true,
      "inputs": [],
      "name": "privateData",
      "outputs": [
        {
          "name": "",
          "type": "string"
        }
      ],
      "payable": false,
      "stateMutability": "view",
      "type": "function"
    },
    {
      "constant": false,
      "inputs": [],
      "name": "renounceOwnership",
      "outputs": [],
      "payable": false,
      "stateMutability": "nonpayable",
      "type": "function"
    },
    {
      "constant": true,
      "inputs": [],
      "name": "owner",
      "outputs": [
        {
          "name": "",
          "type": "address"
        }
      ],
      "payable": false,
      "stateMutability": "view",
      "type": "function"
    },
    {
      "constant": true,
      "inputs": [],
      "name": "isOwner",
      "outputs": [
        {
          "name": "",
          "type": "bool"
        }
      ],
      "payable": false,
      "stateMutability": "view",
      "type": "function"
    },
    {
      "constant": true,
      "inputs": [
        {
          "name": "",
          "type": "uint256"
        }
      ],
      "name": "appPublicKeys",
      "outputs": [
        {
          "name": "",
          "type": "string"
        }
      ],
      "payable": false,
      "stateMutability": "view",
      "type": "function"
    },
    {
      "constant": false,
      "inputs": [
        {
          "name": "newOwner",
          "type": "address"
        }
      ],
      "name": "transferOwnership",
      "outputs": [],
      "payable": false,
      "stateMutability": "nonpayable",
      "type": "function"
    },
    {
      "inputs": [],
      "payable": false,
      "stateMutability": "nonpayable",
      "type": "constructor"
    },
    {
      "anonymous": false,
      "inputs": [
        {
          "indexed": true,
          "name": "previousOwner",
          "type": "address"
        },
        {
          "indexed": true,
          "name": "newOwner",
          "type": "address"
        }
      ],
      "name": "OwnershipTransferred",
      "type": "event"
    },
    {
      "constant": true,
      "inputs": [
        {
          "name": "appPublicKey",
          "type": "string"
        }
      ],
      "name": "appInfo",
      "outputs": [
        {
          "name": "",
          "type": "string"
        },
        {
          "name": "",
          "type": "string[]"
        },
        {
          "name": "",
          "type": "string"
        }
      ],
      "payable": false,
      "stateMutability": "view",
      "type": "function"
    },
    {
      "constant": true,
      "inputs": [],
      "name": "getAppInfos",
      "outputs": [
        {
          "name": "",
          "type": "string[]"
        },
        {
          "name": "",
          "type": "string[]"
        },
        {
          "name": "",
          "type": "string[][]"
        },
        {
          "name": "",
          "type": "string[]"
        }
      ],
      "payable": false,
      "stateMutability": "view",
      "type": "function"
    },
    {
      "constant": true,
      "inputs": [],
      "name": "getPrivateData",
      "outputs": [
        {
          "name": "",
          "type": "string"
        }
      ],
      "payable": false,
      "stateMutability": "view",
      "type": "function"
    },
    {
      "constant": false,
      "inputs": [
        {
          "name": "appPublicKey",
          "type": "string"
        }
      ],
      "name": "eraseDataTo",
      "outputs": [],
      "payable": false,
      "stateMutability": "nonpayable",
      "type": "function"
    },
    {
      "constant": false,
      "inputs": [
        {
          "name": "appPublicKey",
          "type": "string"
        },
        {
          "name": "name",
          "type": "string"
        },
        {
          "name": "arrRequiredData",
          "type": "string[]"
        }
      ],
      "name": "setAppInfo",
      "outputs": [],
      "payable": false,
      "stateMutability": "nonpayable",
      "type": "function"
    },
    {
      "constant": false,
      "inputs": [
        {
          "name": "newPrivateData",
          "type": "string"
        }
      ],
      "name": "updatePrivateData",
      "outputs": [],
      "payable": false,
      "stateMutability": "nonpayable",
      "type": "function"
    },
    {
      "constant": false,
      "inputs": [
        {
          "name": "appPublicKey",
          "type": "string"
        },
        {
          "name": "encryptedData",
          "type": "string"
        }
      ],
      "name": "setAvailableDataTo",
      "outputs": [],
      "payable": false,
      "stateMutability": "nonpayable",
      "type": "function"
    },
    {
      "constant": false,
      "inputs": [
        {
          "name": "_appPublicKeys",
          "type": "string[]"
        },
        {
          "name": "encryptedDatas",
          "type": "string[]"
        }
      ],
      "name": "setAvailableDateToAll",
      "outputs": [],
      "payable": false,
      "stateMutability": "nonpayable",
      "type": "function"
    },
    {
      "constant": true,
      "inputs": [
        {
          "name": "_a",
          "type": "string"
        },
        {
          "name": "_b",
          "type": "string"
        }
      ],
      "name": "equal",
      "outputs": [
        {
          "name": "",
          "type": "bool"
        }
      ],
      "payable": false,
      "stateMutability": "pure",
      "type": "function"
    }
  ],
  "bytecode": "0x608060405234801561001057600080fd5b50600061002a6100cd640100000000026401000000009004565b9050806000806101000a81548173ffffffffffffffffffffffffffffffffffffffff021916908373ffffffffffffffffffffffffffffffffffffffff1602179055508073ffffffffffffffffffffffffffffffffffffffff16600073ffffffffffffffffffffffffffffffffffffffff167f8be0079c531659141344cd1fd0a4f28419497f9722a3daafe3b4186f6b6457e060405160405180910390a3506100d5565b600033905090565b61282d806100e46000396000f3fe6080604052600436106100db576000357c0100000000000000000000000000000000000000000000000000000000900463ffffffff1680632060e508146100e05780633b11d8d71461010957806346bdca9a146101345780636cf1794114610171578063715018a61461019a5780638488b8cc146101b157806384b5c866146101da5780638da5cb5b146102035780638f32d59b1461022e578063921d150014610259578063a46ff69a14610282578063b4968fcd146102b0578063d2ad4311146102ed578063e7e1ef571461032c578063f2fde38b14610357575b600080fd5b3480156100ec57600080fd5b5061010760048036036101029190810190611f56565b610380565b005b34801561011557600080fd5b5061011e6103e3565b60405161012b91906124c4565b60405180910390f35b34801561014057600080fd5b5061015b60048036036101569190810190611f97565b610481565b60405161016891906124a9565b60405180910390f35b34801561017d57600080fd5b5061019860048036036101939190810190611f56565b610497565b005b3480156101a657600080fd5b506101af6105f7565b005b3480156101bd57600080fd5b506101d860048036036101d39190810190612003565b6106ff565b005b3480156101e657600080fd5b5061020160048036036101fc9190810190611eea565b61093a565b005b34801561020f57600080fd5b50610218610aa1565b604051610225919061242d565b60405180910390f35b34801561023a57600080fd5b50610243610aca565b60405161025091906124a9565b60405180910390f35b34801561026557600080fd5b50610280600480360361027b9190810190611f97565b610b28565b005b34801561028e57600080fd5b50610297610c6b565b6040516102a79493929190612448565b60405180910390f35b3480156102bc57600080fd5b506102d760048036036102d2919081019061209a565b610eb2565b6040516102e491906124c4565b60405180910390f35b3480156102f957600080fd5b50610314600480360361030f9190810190611f56565b610f6d565b60405161032393929190612508565b60405180910390f35b34801561033857600080fd5b506103416112b3565b60405161034e91906124e6565b60405180910390f35b34801561036357600080fd5b5061037e60048036036103799190810190611ec1565b61139e565b005b610388610aca565b15156103c9576040517f08c379a00000000000000000000000000000000000000000000000000000000081526004016103c0906125b4565b60405180910390fd5b80600390805190602001906103df929190611a88565b5050565b60038054600181600116156101000203166002900480601f0160208091040260200160405190810160405280929190818152602001828054600181600116156101000203166002900480156104795780601f1061044e57610100808354040283529160200191610479565b820191906000526020600020905b81548152906001019060200180831161045c57829003601f168201915b505050505081565b60008061048e84846113f3565b14905092915050565b61049f610aca565b15156104e0576040517f08c379a00000000000000000000000000000000000000000000000000000000081526004016104d7906125b4565b60405180910390fd5b7fffffffffffffffffffffffffffffffffffffffffffffffffffffffffffffffff61050a826116b9565b1415151561054d576040517f08c379a0000000000000000000000000000000000000000000000000000000008152600401610544906125f4565b60405180910390fd5b6001816040518082805190602001908083835b6020831015156105855780518252602082019150602081019050602083039250610560565b6001836020036101000a0380198251168184511680821785525050505050509050019150509081526020016040518091039020600080820160006105c99190611b08565b6001820160006105d99190611b50565b6002820160006105e99190611b08565b50506105f4816117ce565b50565b6105ff610aca565b1515610640576040517f08c379a0000000000000000000000000000000000000000000000000000000008152600401610637906125b4565b60405180910390fd5b600073ffffffffffffffffffffffffffffffffffffffff166000809054906101000a900473ffffffffffffffffffffffffffffffffffffffff1673ffffffffffffffffffffffffffffffffffffffff167f8be0079c531659141344cd1fd0a4f28419497f9722a3daafe3b4186f6b6457e060405160405180910390a360008060006101000a81548173ffffffffffffffffffffffffffffffffffffffff021916908373ffffffffffffffffffffffffffffffffffffffff160217905550565b610707610aca565b1515610748576040517f08c379a000000000000000000000000000000000000000000000000000000000815260040161073f906125b4565b60405180910390fd5b6000835111151561078e576040517f08c379a000000000000000000000000000000000000000000000000000000000815260040161078590612574565b60405180910390fd5b600081511115156107d4576040517f08c379a00000000000000000000000000000000000000000000000000000000081526004016107cb906125d4565b60405180910390fd5b60606040519081016040528083815260200182815260200160206040519081016040528060008152508152506001846040518082805190602001908083835b6020831015156108385780518252602082019150602081019050602083039250610813565b6001836020036101000a03801982511681845116808217855250505050505090500191505090815260200160405180910390206000820151816000019080519060200190610887929190611b71565b5060208201518160010190805190602001906108a4929190611bf1565b5060408201518160020190805190602001906108c1929190611b71565b509050507fffffffffffffffffffffffffffffffffffffffffffffffffffffffffffffffff6108ef846116b9565b1415610935576002839080600181540180825580915050906001820390600052602060002001600090919290919091509080519060200190610932929190611a88565b50505b505050565b610942610aca565b1515610983576040517f08c379a000000000000000000000000000000000000000000000000000000000815260040161097a906125b4565b60405180910390fd5b805182511415156109c9576040517f08c379a00000000000000000000000000000000000000000000000000000000081526004016109c090612594565b60405180910390fd5b60008090505b8251811015610a9c576000600184838151811015156109ea57fe5b906020019060200201516040518082805190602001908083835b602083101515610a295780518252602082019150602081019050602083039250610a04565b6001836020036101000a038019825116818451168082178552505050505050905001915050908152602001604051809103902090508282815181101515610a6c57fe5b90602001906020020151816002019080519060200190610a8d929190611a88565b505080806001019150506109cf565b505050565b60008060009054906101000a900473ffffffffffffffffffffffffffffffffffffffff16905090565b60008060009054906101000a900473ffffffffffffffffffffffffffffffffffffffff1673ffffffffffffffffffffffffffffffffffffffff16610b0c611950565b73ffffffffffffffffffffffffffffffffffffffff1614905090565b610b30610aca565b1515610b71576040517f08c379a0000000000000000000000000000000000000000000000000000000008152600401610b68906125b4565b60405180910390fd5b7fffffffffffffffffffffffffffffffffffffffffffffffffffffffffffffffff610b9b836116b9565b14151515610bde576040517f08c379a0000000000000000000000000000000000000000000000000000000008152600401610bd5906125f4565b60405180910390fd5b60006001836040518082805190602001908083835b602083101515610c185780518252602082019150602081019050602083039250610bf3565b6001836020036101000a0380198251168184511680821785525050505050509050019150509081526020016040518091039020905081816002019080519060200190610c65929190611a88565b50505050565b60608060608060606002805480602002602001604051908101604052809291908181526020016000905b82821015610d51578382906000526020600020018054600181600116156101000203166002900480601f016020809104026020016040519081016040528092919081815260200182805460018160011615610100020316600290048015610d3d5780601f10610d1257610100808354040283529160200191610d3d565b820191906000526020600020905b815481529060010190602001808311610d2057829003601f168201915b505050505081526020019060010190610c95565b50505050905060608151604051908082528060200260200182016040528015610d8e57816020015b6060815260200190600190039081610d795790505b50905060608251604051908082528060200260200182016040528015610dc857816020015b6060815260200190600190039081610db35790505b50905060608351604051908082528060200260200182016040528015610e0257816020015b6060815260200190600190039081610ded5790505b50905060008090505b8451811015610e9b57610e348582815181101515610e2557fe5b90602001906020020151610f6d565b8292508191508090508684815181101515610e4b57fe5b9060200190602002018685815181101515610e6257fe5b9060200190602002018686815181101515610e7957fe5b9060200190602002018390528390528390525050508080600101915050610e0b565b508383838397509750975097505050505090919293565b600281815481101515610ec157fe5b906000526020600020016000915090508054600181600116156101000203166002900480601f016020809104026020016040519081016040528092919081815260200182805460018160011615610100020316600290048015610f655780601f10610f3a57610100808354040283529160200191610f65565b820191906000526020600020905b815481529060010190602001808311610f4857829003601f168201915b505050505081565b60608060607fffffffffffffffffffffffffffffffffffffffffffffffffffffffffffffffff610f9c856116b9565b14151515610fdf576040517f08c379a0000000000000000000000000000000000000000000000000000000008152600401610fd6906125f4565b60405180910390fd5b610fe7611c51565b6001856040518082805190602001908083835b60208310151561101f5780518252602082019150602081019050602083039250610ffa565b6001836020036101000a038019825116818451168082178552505050505050905001915050908152602001604051809103902060606040519081016040529081600082018054600181600116156101000203166002900480601f0160208091040260200160405190810160405280929190818152602001828054600181600116156101000203166002900480156110f75780601f106110cc576101008083540402835291602001916110f7565b820191906000526020600020905b8154815290600101906020018083116110da57829003601f168201915b5050505050815260200160018201805480602002602001604051908101604052809291908181526020016000905b828210156111e1578382906000526020600020018054600181600116156101000203166002900480601f0160208091040260200160405190810160405280929190818152602001828054600181600116156101000203166002900480156111cd5780601f106111a2576101008083540402835291602001916111cd565b820191906000526020600020905b8154815290600101906020018083116111b057829003601f168201915b505050505081526020019060010190611125565b505050508152602001600282018054600181600116156101000203166002900480601f0160208091040260200160405190810160405280929190818152602001828054600181600116156101000203166002900480156112825780601f1061125757610100808354040283529160200191611282565b820191906000526020600020905b81548152906001019060200180831161126557829003601f168201915b5050505050815250509050806000015181602001518260400151829250819150809050935093509350509193909250565b60606112bd610aca565b15156112fe576040517f08c379a00000000000000000000000000000000000000000000000000000000081526004016112f5906125b4565b60405180910390fd5b60038054600181600116156101000203166002900480601f0160208091040260200160405190810160405280929190818152602001828054600181600116156101000203166002900480156113945780601f1061136957610100808354040283529160200191611394565b820191906000526020600020905b81548152906001019060200180831161137757829003601f168201915b5050505050905090565b6113a6610aca565b15156113e7576040517f08c379a00000000000000000000000000000000000000000000000000000000081526004016113de906125b4565b60405180910390fd5b6113f081611958565b50565b600060608390506060839050600082519050808251101561141357815190505b60008090505b8181101561165f57828181518110151561142f57fe5b9060200101517f010000000000000000000000000000000000000000000000000000000000000090047f0100000000000000000000000000000000000000000000000000000000000000027effffffffffffffffffffffffffffffffffffffffffffffffffffffffffffff191684828151811015156114aa57fe5b9060200101517f010000000000000000000000000000000000000000000000000000000000000090047f0100000000000000000000000000000000000000000000000000000000000000027effffffffffffffffffffffffffffffffffffffffffffffffffffffffffffff19161015611549577fffffffffffffffffffffffffffffffffffffffffffffffffffffffffffffffff9450505050506116b3565b828181518110151561155757fe5b9060200101517f010000000000000000000000000000000000000000000000000000000000000090047f0100000000000000000000000000000000000000000000000000000000000000027effffffffffffffffffffffffffffffffffffffffffffffffffffffffffffff191684828151811015156115d257fe5b9060200101517f010000000000000000000000000000000000000000000000000000000000000090047f0100000000000000000000000000000000000000000000000000000000000000027effffffffffffffffffffffffffffffffffffffffffffffffffffffffffffff191611156116525760019450505050506116b3565b8080600101915050611419565b50815183511015611695577fffffffffffffffffffffffffffffffffffffffffffffffffffffffffffffffff93505050506116b3565b8151835111156116ab57600193505050506116b3565b600093505050505b92915050565b600080600090505b6002805490508110156117a4576117896002828154811015156116e057fe5b906000526020600020018054600181600116156101000203166002900480601f01602080910402602001604051908101604052809291908181526020018280546001816001161561010002031660029004801561177e5780601f106117535761010080835404028352916020019161177e565b820191906000526020600020905b81548152906001019060200180831161176157829003601f168201915b505050505084610481565b1561179757809150506117c9565b80806001019150506116c1565b507fffffffffffffffffffffffffffffffffffffffffffffffffffffffffffffffff90505b919050565b60008090505b60028054905081101561194c5761189c6002828154811015156117f357fe5b906000526020600020018054600181600116156101000203166002900480601f0160208091040260200160405190810160405280929190818152602001828054600181600116156101000203166002900480156118915780601f1061186657610100808354040283529160200191611891565b820191906000526020600020905b81548152906001019060200180831161187457829003601f168201915b505050505083610481565b1561193f5760026001600280549050038154811015156118b857fe5b906000526020600020016002828154811015156118d157fe5b9060005260206000200190805460018160011615610100020316600290046118fa929190611c73565b50600260016002805490500381548110151561191257fe5b9060005260206000200160006119289190611b08565b600280548091906001900361193d9190611cfa565b505b80806001019150506117d4565b5050565b600033905090565b600073ffffffffffffffffffffffffffffffffffffffff168173ffffffffffffffffffffffffffffffffffffffff16141515156119ca576040517f08c379a00000000000000000000000000000000000000000000000000000000081526004016119c190612554565b60405180910390fd5b8073ffffffffffffffffffffffffffffffffffffffff166000809054906101000a900473ffffffffffffffffffffffffffffffffffffffff1673ffffffffffffffffffffffffffffffffffffffff167f8be0079c531659141344cd1fd0a4f28419497f9722a3daafe3b4186f6b6457e060405160405180910390a3806000806101000a81548173ffffffffffffffffffffffffffffffffffffffff021916908373ffffffffffffffffffffffffffffffffffffffff16021790555050565b828054600181600116156101000203166002900490600052602060002090601f016020900481019282601f10611ac957805160ff1916838001178555611af7565b82800160010185558215611af7579182015b82811115611af6578251825591602001919060010190611adb565b5b509050611b049190611d26565b5090565b50805460018160011615610100020316600290046000825580601f10611b2e5750611b4d565b601f016020900490600052602060002090810190611b4c9190611d26565b5b50565b5080546000825590600052602060002090810190611b6e9190611d4b565b50565b828054600181600116156101000203166002900490600052602060002090601f016020900481019282601f10611bb257805160ff1916838001178555611be0565b82800160010185558215611be0579182015b82811115611bdf578251825591602001919060010190611bc4565b5b509050611bed9190611d26565b5090565b828054828255906000526020600020908101928215611c40579160200282015b82811115611c3f578251829080519060200190611c2f929190611b71565b5091602001919060010190611c11565b5b509050611c4d9190611d4b565b5090565b6060604051908101604052806060815260200160608152602001606081525090565b828054600181600116156101000203166002900490600052602060002090601f016020900481019282601f10611cac5780548555611ce9565b82800160010185558215611ce957600052602060002091601f016020900482015b82811115611ce8578254825591600101919060010190611ccd565b5b509050611cf69190611d26565b5090565b815481835581811115611d2157818360005260206000209182019101611d209190611d4b565b5b505050565b611d4891905b80821115611d44576000816000905550600101611d2c565b5090565b90565b611d7491905b80821115611d705760008181611d679190611b08565b50600101611d51565b5090565b90565b6000611d838235612784565b905092915050565b600082601f8301121515611d9e57600080fd5b8135611db1611dac82612641565b612614565b9150818183526020840193506020810190508360005b83811015611df75781358601611ddd8882611e01565b845260208401935060208301925050600181019050611dc7565b5050505092915050565b600082601f8301121515611e1457600080fd5b8135611e27611e2282612669565b612614565b91508082526020830160208301858383011115611e4357600080fd5b611e4e8382846127a0565b50505092915050565b600082601f8301121515611e6a57600080fd5b8135611e7d611e7882612695565b612614565b91508082526020830160208301858383011115611e9957600080fd5b611ea48382846127a0565b50505092915050565b6000611eb98235612796565b905092915050565b600060208284031215611ed357600080fd5b6000611ee184828501611d77565b91505092915050565b60008060408385031215611efd57600080fd5b600083013567ffffffffffffffff811115611f1757600080fd5b611f2385828601611d8b565b925050602083013567ffffffffffffffff811115611f4057600080fd5b611f4c85828601611d8b565b9150509250929050565b600060208284031215611f6857600080fd5b600082013567ffffffffffffffff811115611f8257600080fd5b611f8e84828501611e57565b91505092915050565b60008060408385031215611faa57600080fd5b600083013567ffffffffffffffff811115611fc457600080fd5b611fd085828601611e57565b925050602083013567ffffffffffffffff811115611fed57600080fd5b611ff985828601611e57565b9150509250929050565b60008060006060848603121561201857600080fd5b600084013567ffffffffffffffff81111561203257600080fd5b61203e86828701611e57565b935050602084013567ffffffffffffffff81111561205b57600080fd5b61206786828701611e57565b925050604084013567ffffffffffffffff81111561208457600080fd5b61209086828701611d8b565b9150509250925092565b6000602082840312156120ac57600080fd5b60006120ba84828501611ead565b91505092915050565b6120cc81612746565b82525050565b60006120dd826126e8565b808452602084019350836020820285016120f6856126c1565b60005b8481101561212f5783830388526121118383516121ae565b925061211c8261271f565b91506020880197506001810190506120f9565b508196508694505050505092915050565b600061214b826126fe565b80845260208401935083602082028501612164856126db565b60005b8481101561219d57838303885261217f838351612261565b925061218a82612739565b9150602088019750600181019050612167565b508196508694505050505092915050565b60006121b9826126f3565b808452602084019350836020820285016121d2856126ce565b60005b8481101561220b5783830388526121ed838351612261565b92506121f88261272c565b91506020880197506001810190506121d5565b508196508694505050505092915050565b61222581612758565b82525050565b600061223682612714565b80845261224a8160208601602086016127af565b612253816127e2565b602085010191505092915050565b600061226c82612709565b8084526122808160208601602086016127af565b612289816127e2565b602085010191505092915050565b6000602682527f4f776e61626c653a206e6577206f776e657220697320746865207a65726f206160208301527f64647265737300000000000000000000000000000000000000000000000000006040830152606082019050919050565b6000601382527f5075626c6963206b657920697320656d707479000000000000000000000000006020830152604082019050919050565b6000602282527f456e637279706574656420646174617320776974682077726f6e67206c656e6760208301527f74680000000000000000000000000000000000000000000000000000000000006040830152606082019050919050565b6000602082527f4f776e61626c653a2063616c6c6572206973206e6f7420746865206f776e65726020830152604082019050919050565b6000601682527f5265717569726564206461746120697320656d707479000000000000000000006020830152604082019050919050565b6000601d82527f417070207075626c6963206b657920646f6573206e6f742065786973740000006020830152604082019050919050565b600060208201905061244260008301846120c3565b92915050565b600060808201905081810360008301526124628187612140565b905081810360208301526124768186612140565b9050818103604083015261248a81856120d2565b9050818103606083015261249e8184612140565b905095945050505050565b60006020820190506124be600083018461221c565b92915050565b600060208201905081810360008301526124de8184612261565b905092915050565b60006020820190508181036000830152612500818461222b565b905092915050565b60006060820190508181036000830152612522818661222b565b905081810360208301526125368185612140565b9050818103604083015261254a818461222b565b9050949350505050565b6000602082019050818103600083015261256d81612297565b9050919050565b6000602082019050818103600083015261258d816122f4565b9050919050565b600060208201905081810360008301526125ad8161232b565b9050919050565b600060208201905081810360008301526125cd81612388565b9050919050565b600060208201905081810360008301526125ed816123bf565b9050919050565b6000602082019050818103600083015261260d816123f6565b9050919050565b6000604051905081810181811067ffffffffffffffff8211171561263757600080fd5b8060405250919050565b600067ffffffffffffffff82111561265857600080fd5b602082029050602081019050919050565b600067ffffffffffffffff82111561268057600080fd5b601f19601f8301169050602081019050919050565b600067ffffffffffffffff8211156126ac57600080fd5b601f19601f8301169050602081019050919050565b6000602082019050919050565b6000602082019050919050565b6000602082019050919050565b600081519050919050565b600081519050919050565b600081519050919050565b600081519050919050565b600081519050919050565b6000602082019050919050565b6000602082019050919050565b6000602082019050919050565b600061275182612764565b9050919050565b60008115159050919050565b600073ffffffffffffffffffffffffffffffffffffffff82169050919050565b600061278f82612764565b9050919050565b6000819050919050565b82818337600083830152505050565b60005b838110156127cd5780820151818401526020810190506127b2565b838111156127dc576000848401525b50505050565b6000601f19601f830116905091905056fea265627a7a723058208d3f30d41dc4d6250b449d87c77e4cad8a217b54668f4d923990e4a0526b73966c6578706572696d656e74616cf50037",
  "source": "pragma solidity ^0.5.0;\npragma experimental ABIEncoderV2;\nimport \"./Ownable.sol\";\n\ncontract MyContract is Ownable {\n    \n    struct AppInfo{\n        string name;\n        string[] requiredData;\n        string availableData;\n    }\n\n    mapping (string => AppInfo) private appInfos;\n    string[] public appPublicKeys;\n    \n    string public privateData;\n    \n    constructor() \n    Ownable() \n    public {\n        \n    }\n\n    function appInfo(string memory appPublicKey) public view\n        returns(\n            string memory,\n            string[] memory,\n            string memory\n        ) {\n            require(findAppPublicKey(appPublicKey) != -1, \"App public key does not exist\");\n\n            AppInfo memory ai = appInfos[appPublicKey];\n            \n            return (\n                ai.name,\n                ai.requiredData,\n                ai.availableData\n            );\n    }\n\n    function getAppInfos() public view returns(string[] memory, string[] memory, string[][] memory, string[] memory) {\n        string[] memory pks = appPublicKeys;\n\n        string[] memory names = new string[](pks.length);\n        string[][] memory requiredDatas = new string[][](pks.length);\n        string[] memory availableDatas = new string[](pks.length);\n\n        for (uint i = 0; i < pks.length; i++) {\n            (names[i], requiredDatas[i], availableDatas[i]) = appInfo(pks[i]);\n        }\n\n        return (pks, names, requiredDatas, availableDatas);\n    }\n\n    function getPrivateData() public view onlyOwner returns (string memory) {\n        return privateData;\n    }\n\n    function eraseDataTo(string memory appPublicKey) public onlyOwner {\n        require(findAppPublicKey(appPublicKey) != -1, \"App public key does not exist\");\n        delete appInfos[appPublicKey];\n        removeAppPublicKey(appPublicKey);\n    }\n    \n    function setAppInfo(string memory appPublicKey, string memory name, string[] memory arrRequiredData) public onlyOwner {\n        require(bytes(appPublicKey).length > 0, \"Public key is empty\");\n        require(arrRequiredData.length > 0, \"Required data is empty\");\n        appInfos[appPublicKey] = AppInfo(name, arrRequiredData, \"\");\n        if(findAppPublicKey(appPublicKey) == -1){\n            appPublicKeys.push(appPublicKey);\n        }\n    }\n    \n    function updatePrivateData(string memory newPrivateData) public onlyOwner {\n        privateData = newPrivateData;\n    }\n    \n    function setAvailableDataTo(string memory appPublicKey, string memory encryptedData) public onlyOwner {\n        require(findAppPublicKey(appPublicKey) != -1, \"App public key does not exist\");\n        AppInfo storage ai = appInfos[appPublicKey];\n        ai.availableData = encryptedData;\n    }\n\n    function setAvailableDateToAll(string[] memory _appPublicKeys, string[] memory encryptedDatas) public onlyOwner {\n        //require(appPublicKeys.length == _appPublicKeys.length, \"App public keys with wrong length\");\n        require(_appPublicKeys.length == encryptedDatas.length, \"Encrypeted datas with wrong length\");\n        for (uint i = 0; i < _appPublicKeys.length; i++){\n            AppInfo storage ai = appInfos[_appPublicKeys[i]];\n            ai.availableData = encryptedDatas[i];\n        }\n    }\n    \n    function findAppPublicKey(string memory appPublicKey) private view returns (int256){\n        for (uint i = 0; i < appPublicKeys.length; i++){\n            if(equal(appPublicKeys[i], appPublicKey)){\n                return int(i);\n            }\n        }\n        return -1;\n    }\n    \n    function removeAppPublicKey(string memory appPublicKey) private {\n        for (uint i=0; i< appPublicKeys.length; i++){\n            if(equal(appPublicKeys[i], appPublicKey)){\n                appPublicKeys[i] = appPublicKeys[appPublicKeys.length-1];\n                delete appPublicKeys[appPublicKeys.length-1];\n                appPublicKeys.length--;\n            }\n        }\n    }\n    \n    // StringUtils\n    function compare(string memory _a, string memory _b) private pure returns (int) {\n        bytes memory a = bytes(_a);\n        bytes memory b = bytes(_b);\n        uint minLength = a.length;\n        if (b.length < minLength) minLength = b.length;\n        //@todo unroll the loop into increments of 32 and do full 32 byte comparisons\n        for (uint i = 0; i < minLength; i ++)\n            if (a[i] < b[i])\n                return -1;\n            else if (a[i] > b[i])\n                return 1;\n        if (a.length < b.length)\n            return -1;\n        else if (a.length > b.length)\n            return 1;\n        else\n            return 0;\n    }\n    /// @dev Compares two strings and returns true iff they are equal.\n    function equal(string memory _a, string memory _b) public pure returns (bool) {\n        return compare(_a, _b) == 0;\n    }\n    /// @dev Finds the index of the first occurrence of _needle in _haystack\n    function indexOf(string memory _haystack, string memory _needle) private pure returns (int)\n    {\n    \tbytes memory h = bytes(_haystack);\n    \tbytes memory n = bytes(_needle);\n    \tif(h.length < 1 || n.length < 1 || (n.length > h.length)) \n    \t\treturn -1;\n    \telse if(h.length > (2**128 -1)) // since we have to be able to return -1 (if the char isn't found or input error), this function must return an \"int\" type with a max length of (2^128 - 1)\n    \t\treturn -1;\t\t\t\t\t\t\t\t\t\n    \telse\n    \t{\n    \t\tuint subindex = 0;\n    \t\tfor (uint i = 0; i < h.length; i ++)\n    \t\t{\n    \t\t\tif (h[i] == n[0]) // found the first char of b\n    \t\t\t{\n    \t\t\t\tsubindex = 1;\n    \t\t\t\twhile(subindex < n.length && (i + subindex) < h.length && h[i + subindex] == n[subindex]) // search until the chars don't match or until we reach the end of a or b\n    \t\t\t\t{\n    \t\t\t\t\tsubindex++;\n    \t\t\t\t}\t\n    \t\t\t\tif(subindex == n.length)\n    \t\t\t\t\treturn int(i);\n    \t\t\t}\n    \t\t}\n    \t\treturn -1;\n    \t}\t\n    }\n}",
  "sourcePath": "/home/iuri/VSCodeProjects/iesb-blockchain/dapp/contracts/MyContract.sol",
  "compiler": {
    "name": "solc",
    "version": "0.5.0+commit.1d4f565a.Emscripten.clang"
  },
  "schemaVersion": "3.1.0",
  "updatedAt": "2020-06-01T19:50:55.677Z",
  "networkType": "ethereum",
  "devdoc": {
    "methods": {
      "equal(string,string)": {
        "details": "Compares two strings and returns true iff they are equal."
      },
      "isOwner()": {
        "details": "Returns true if the caller is the current owner."
      },
      "owner()": {
        "details": "Returns the address of the current owner."
      },
      "renounceOwnership()": {
        "details": "Leaves the contract without owner. It will not be possible to call `onlyOwner` functions anymore. Can only be called by the current owner.     * NOTE: Renouncing ownership will leave the contract without an owner, thereby removing any functionality that is only available to the owner."
      },
      "transferOwnership(address)": {
        "details": "Transfers ownership of the contract to a new account (`newOwner`). Can only be called by the current owner."
      }
    }
  },
  "userdoc": {
    "methods": {}
  }
}